:100000000C9462000C948A000C948A000C948A0070
:100010000C948A000C948A000C948A000C948A0038
:100020000C948A000C948A000C948A000C948A0028
:100030000C948A000C948A000C948A000C948A0018
:100040000C9436050C948A000C9404050C94DE0480
:100050000C948A000C948A000C948A000C948A00F8
:100060000C948A000C948A000000000024002700F1
:100070002A0000000000250028002B0000000008D6
:10008000000201000003040700000000000000005F
:1000900000000000230026002900040404040404D6
:1000A0000404020202020202030303030303010227
:1000B00004081020408001020408102001020408F6
:1000C0001020C50511241FBECFEFD8E0DEBFCDBF85
:1000D00022E0AAE9B1E001C01D92A83AB207E1F717
:1000E00011E0A0E0B1E0ECEDF2E102C005900D926C
:1000F000AA39B107D9F710E0C2E6D0E004C02197D1
:10010000FE010E946609C136D107C9F70E94210687
:100110000C946C090C940000EDEAF1E0A089B1891F
:1001200082E08C93A485B5851C92A685B7858FEC5B
:100130008C93108EA489B58986E08C93A289B389AB
:100140008C9180618C93A289B3898C9188608C9307
:10015000A289B3898C9180688C930288F389E02D01
:1001600080818F7D8083089585E480937C008091D9
:100170007A00806480937A0080917A0086FDFCCFBB
:1001800080917800909179000895AF92BF92CF92BC
:10019000DF92EF92FF920F931F93CF93DF936C0147
:1001A0007B018B01040F151FEB015E01AE18BF0828
:1001B000C017D10759F06991D601ED91FC910190DA
:1001C000F081E02DC6010995892B79F7C501DF91F2
:1001D000CF911F910F91FF90EF90DF90CF90BF9044
:1001E000AF900895FC01538D448D252F30E0842F6E
:1001F00090E0821B930B541710F0CF96089501974F
:100200000895FC01918D828D981761F0A28DAE0F3B
:10021000BF2FB11D5D968C91928D9F5F9F73928FC2
:1002200090E008958FEF9FEF0895FC01918D828DEE
:10023000981731F0828DE80FF11D858D90E00895BB
:100240008FEF9FEF0895FC01918D228D892F90E013
:10025000805C9F4F821B91098F73992708958DEAC7
:1002600091E00E94230121E0892B09F420E0822FF4
:10027000089580E090E0892B29F00E942F018111E0
:100280000C9400000895FC01A48DA80FB92FB11D96
:10029000A35ABF4F2C91848D90E001968F739927BC
:1002A000848FA689B7892C93A089B1898C9183709A
:1002B00080648C93938D848D981306C00288F38993
:1002C000E02D80818F7D80830895EF92FF920F93C0
:1002D0001F93CF93DF93EC0181E0888F9B8D8C8DF2
:1002E00098131AC0E889F989808185FF15C09FB7E6
:1002F000F894EE89FF896083E889F98980818370A9
:10030000806480839FBF81E090E0DF91CF911F9157
:100310000F91FF90EF900895F62E0B8D10E00F5F78
:100320001F4F0F731127E02E8C8D8E110CC00FB64E
:1003300007FCFACFE889F989808185FFF5CFCE01E6
:100340000E944301F1CFEB8DEC0FFD2FF11DE35A1D
:10035000FF4FF0829FB7F8940B8FEA89FB89808169
:100360008062CFCFCF93DF93EC01888D8823B9F0E3
:10037000AA89BB89E889F9898C9185FD03C08081B0
:1003800086FD0DC00FB607FCF7CF8C9185FFF2CF2D
:10039000808185FFEDCFCE010E944301E9CFDF913F
:1003A000CF91089590E0FC01E458FF4F2491FC01A7
:1003B000E255FF4F3491FC01E656FF4FE491EE23E6
:1003C000C9F0222339F0233001F1A8F4213019F1CA
:1003D000223029F1F0E0EE0FFF1FEE58FF4FA591FC
:1003E000B4918FB7F894EC91611126C030953E23FB
:1003F0003C938FBF08952730A9F02830C9F02430EE
:1004000049F7809180008F7D03C0809180008F77B5
:1004100080938000DFCF84B58F7784BDDBCF84B538
:100420008F7DFBCF8091B0008F778093B000D2CFCB
:100430008091B0008F7DF9CF3E2BDACFCF93DF9341
:1004400090E0FC01E255FF4F249186569F4FFC013E
:1004500084918823D1F090E0880F991FFC01E8591E
:10046000FF4FA591B491FC01EE58FF4FC591D49177
:1004700061110EC09FB7F8948C91E22FE0958E2306
:100480008C932881E223E8839FBFDF91CF91089569
:100490008FB7F894EC91E22BEC938FBFF6CF3FB778
:1004A000F89480919F019091A001A091A101B09139
:1004B000A20126B5A89B05C02F3F19F00196A11DEA
:1004C000B11D3FBFBA2FA92F982F8827BC01CD019E
:1004D000620F711D811D911D42E0660F771F881FFD
:1004E000991F4A95D1F708958F929F92AF92BF922C
:1004F000CF92DF92EF92FF924B015C010E944F027C
:100500006B017C010E944F026C197D098E099F09C5
:10051000683E734081059105A8F321E0821A910895
:10052000A108B10888EEC80E83E0D81EE11CF11CBA
:1005300081149104A104B10429F7FF90EF90DF909A
:10054000CF90BF90AF909F908F9008952FB7F89461
:1005500060919B0170919C0180919D0190919E0101
:100560002FBF0895089590E080E00895CF93DF9322
:10057000EC0160E08E810E94D20161E08E810E94D8
:10058000D20160E08E810E94D2018BE891E0019758
:10059000F1F7DF91CF910895CF92DF92EF92FF9222
:1005A0000F931F93CF93DF936C017C0187E0E80EDC
:1005B000F11CD0E0C0E0062F10E0B8010C2E02C004
:1005C000759567950A94E2F76170F70181917F0153
:1005D0000E94D2012196C430D10579F7C601DF917E
:1005E000CF911F910F91FF90EF90DF90CF900C94DF
:1005F000B602CF92DF92EF92FF920F931F93CF93A9
:10060000DF93EC01F62E642F8C810E94D2018D8144
:100610008F3F19F060E00E94D2010F2D10E08F850E
:1006200084FF25C06E0187E0C80ED11CF12CE12C9F
:10063000B8010E2C02C0759567950A94E2F76170B7
:10064000F60181916F010E94D201FFEFEF1AFF0ABC
:1006500088E0E816F10461F7CE01DF91CF911F9198
:100660000F91FF90EF90DF90CF900C94B602B801FD
:1006700084E0759567958A95E1F7CE010E94CC02DA
:100680006F2DCE01DF91CF911F910F91FF90EF90D1
:10069000DF90CF900C94CC0240E0682F80E992E08C
:1006A0000C94F902CF93DF93823029F490919F024A
:1006B000986090939F028093A3021092A40280E41A
:1006C0008093A50280E18093A60280E58093A70233
:1006D00061E0809194020E941E02809195028F3FFA
:1006E00019F061E00E941E0261E0809196020E9472
:1006F0001E02C0E9D2E09E012059324080919F0243
:1007000084FD0BC084E090E021962817390744F45B
:1007100061E08E810E941E02EECF88E090E0F4CF6F
:100720008BE39DE00197F1F760E0809194020E94D5
:10073000D20160E0809196020E94D20180919502E0
:100740008F3F19F060E00E94D20180919F0284FDEA
:1007500039C063E080E992E00E94CC02CBE4D6E4A9
:10076000CE010197F1F763E080E992E00E94CC02AC
:100770002197F1F763E080E992E00E94CC0283E5E3
:1007800092E00197F1F762E080E992E00E94CC02EA
:1007900080919F0280620E944C0384E08093A002BB
:1007A0008CE00E944C0381E00E944C038BE39FE1AC
:1007B0000197F1F782E08093A10286E0DF91CF916B
:1007C0000C944C0380620E944C038BE496E40197E6
:1007D000F1F780919F0280620E944C0383E592E0D2
:1007E0000197F1F780919F0280620E944C03D0CF65
:1007F0009091A302691710F06FEF690FE62FF0E0F8
:10080000E057FD4F9489890F80680C944C0341E0B8
:100810000E94F90281E090E008950F931F93EBEBA3
:10082000F0E06491E7EAF0E0E491F0E0EE0FFF1F02
:10083000E057FF4F8591949100E412E42FE030E0FF
:1008400040E00E948005611571058105910529F040
:100850006F5F7F4F8F4F9F4F9F701F910F91089534
:10086000FB0101900020E9F73197AF01461B570BC0
:10087000DC01ED91FC910280F381E02D09948F92CF
:100880009F92AF92BF92EF92FF920F931F93CF93DD
:10089000DF93CDB7DEB7A1970FB6F894DEBF0FBEDA
:1008A000CDBF7C01FA01CB0119A2223008F42AE065
:1008B0008E010F5D1F4F822E912CB12CA12CBF01F8
:1008C000A50194010E944409F901CA016A300CF59E
:1008D000605DD8016E938D01232B242B252B79F796
:1008E00090E080E0109721F0BD01C7010E94300424
:1008F000A1960FB6F894DEBF0FBECDBFDF91CF91AA
:100900001F910F91FF90EF90BF90AF909F908F90AD
:100910000895695CDECFCF92DF92EF92FF920F9342
:100920001F93CF93DF93EC016A017B01E881F9818A
:100930000190F081E02D6DE209958C014427552747
:10094000BA014C195D096E097F092AE0CE010E94A7
:100950003F04800F911FDF91CF911F910F91FF9066
:10096000EF90DF90CF900895CF93DF93AC01990F74
:10097000660B770B77FF10C08DEA91E00E948B0425
:10098000EC016EE171E08DEA91E00E9430048C0F81
:100990009D1FDF91CF9108952AE08DEA91E00E949A
:1009A0003F04EECFAB01770F660B770B77FD0C940E
:1009B0008B042AE00C943F040C9430041F920F9295
:1009C0000FB60F9211242F933F934F935F936F9322
:1009D0007F938F939F93AF93BF93EF93FF938DEA92
:1009E00091E00E944301FF91EF91BF91AF919F91E0
:1009F0008F917F916F915F914F913F912F910F90C8
:100A00000FBE0F901F9018951F920F920FB60F9266
:100A100011242F938F939F93EF93FF93E091BD0148
:100A2000F091BE018081E091C301F091C40182FD8B
:100A30001BC090818091C6018F5F8F732091C70189
:100A4000821741F0E091C601F0E0E355FE4F958F2B
:100A50008093C601FF91EF919F918F912F910F90FD
:100A60000FBE0F901F9018958081F4CF1F920F92A8
:100A70000FB60F9211242F933F938F939F93AF93B1
:100A8000BF9380919B0190919C01A0919D01B09199
:100A90009E0130919A0123E0230F2D3758F50196DE
:100AA000A11DB11D20939A0180939B0190939C01FD
:100AB000A0939D01B0939E0180919F019091A00110
:100AC000A091A101B091A2010196A11DB11D809339
:100AD0009F019093A001A093A101B093A201BF91A7
:100AE000AF919F918F913F912F910F900FBE0F90DB
:100AF0001F90189526E8230F0296A11DB11DD2CF95
:100B0000CF92DF92EF92FF920F931F93E82FF92F6E
:100B100005C0015011092109310961F19081962325
:100B20009417B9F305C0015011092109310911F1D8
:100B3000908196239413F7CFC12CD12CE12CF12C6A
:100B40000AC08FEFC81AD80AE80AF80A0C151D0562
:100B50002E053F0579F080818623841791F36C2D53
:100B60007D2D8E2D9F2D1F910F91FF90EF90DF9087
:100B7000CF90089560E070E080E090E01F910F91C9
:100B8000FF90EF90DF90CF900895EDEAF1E01382AF
:100B9000128288EE93E0A0E0B0E084839583A68380
:100BA000B78384E091E09183808385EC90E0958722
:100BB000848784EC90E09787868780EC90E0918B27
:100BC000808B81EC90E0938B828B82EC90E0958B14
:100BD000848B86EC90E0978B868B118E128E138E11
:100BE000148EEAE4F2E016821782108611861286CD
:100BF00013861486158616861786108A118A128A1D
:100C0000138A148A158AE0E9F2E01382128286E1DF
:100C100091E09183808388E084838FEF858387E0F0
:100C2000868386E0878385E0808784E0818783E010
:100C300082871386148615861686178681E00C94A3
:100C40005203CF93DF9300D000D0CDB7DEB77894B6
:100C500084B5826084BD84B5816084BD85B58260C1
:100C600085BD85B5816085BD80916E008160809372
:100C70006E001092810080918100826080938100DB
:100C800080918100816080938100809180008160EB
:100C9000809380008091B10084608093B100809146
:100CA000B00081608093B00080917A00846080936E
:100CB0007A0080917A00826080937A0080917A0035
:100CC000816080937A0080917A00806880937A00B6
:100CD0001092C10010928C0210928D0210928E021E
:100CE00010928F0210924C0210924D0210924E02FE
:100CF00010924F020E94A6026B017C014B015C0125
:100D000028EB820E2BE0921EA11CB11C0E94A602B1
:100D10006C157D058E059F0528F086169706A8069A
:100D2000B906A0F768EE73E080E090E00E947402DC
:100D30000E948C000E94A60260934C0270934D02A8
:100D400080934E0290934F0261E271E08DEA91E050
:100D50000E94DC040E94A6026B017C014B015C0135
:100D60003AE0830E911CA11CB11C0E94A6026C15D6
:100D70007D058E059F0528F086169706A806B906FC
:100D8000A0F781E08093600282E00E9452030E94FB
:100D90008C0061E082E00E941E0261E082E10E941C
:100DA0001E0261E08EE00E941E0261E089E00E9466
:100DB0001E0261E08AE00E941E0261E08BE00E9458
:100DC0001E0261E08CE00E941E0260E08DE00E9445
:100DD0001E0261E089E00E94D20160E08AE00E9488
:100DE000D20161E082E00E94D20161E082E10E94D2
:100DF000D20161E08EE00E94D2010E94A6029B0116
:100E0000AC0128513C4F4F4F5F4F29833A834B83AE
:100E10005C8384EF882E99249394A12CB12C0E949A
:100E2000A60229813A814B815C816217730784078E
:100E3000950708F01EC10E94B4002091AB013091CB
:100E4000AC01281739075CF79093AC018093AB0194
:100E50000E94A602672B682B692B09F4F8C00E9438
:100E6000A602C090A301D090A401E090A501F0904B
:100E7000A6016C157D058E059F0508F4F1C0C09094
:100E8000A301D090A401E090A501F090A6019B01E0
:100E9000AC012C193D094E095F0969017A013AEF4D
:100EA000C316D104E104F10408F4B9CF6093A3019F
:100EB0007093A4018093A5019093A601809258029B
:100EC00090925902A0925A02B0925B0210925C0278
:100ED00010925D0210925E0210925F0280915002A9
:100EE00090915102A0915202B0915302809354020A
:100EF00090935502A0935602B09357020E94A60207
:100F00006093500270935102809352029093530267
:100F10000E94A60260934C0270934D0280934E0291
:100F200090934F020E94A6026B017C0162E371E084
:100F30008DEA91E00E94DC042AE041E050E060E0AC
:100F400070E08DEA91E00E943F0469E371E08DEA70
:100F500091E00E94DC042AE0B701A6018DEA91E04D
:100F60000E943F046BE371E08DEA91E00E94DC0493
:100F70008091500290915102A0915202B09153027F
:100F8000B701A601481B590B6A0B7B0B2AE08DEABF
:100F900091E00E943F046BE371E08DEA91E00E94D2
:100FA000DC044091500250915102609152027091C4
:100FB00053028091540290915502A0915602B09133
:100FC0005702481B590B6A0B7B0B2AE08DEA91E014
:100FD0000E943F046DE371E08DEA91E00E94DC0421
:100FE0000E94A602AB01BC012AE08DEA91E00E94BA
:100FF0003F046FE371E08DEA91E00E9430046EE1FE
:1010000071E08DEA91E00E9430040E94A6026B011B
:101010007C012B013C0142E0440E511C611C711CFF
:101020000E94A6026C157D058E059F0528F04616C8
:10103000570668067906A0F70E94A6026093500240
:10104000709351028093520290935302E8CE0E9413
:10105000A602623071058105910508F000CFDFCE50
:101060006093A3017093A4018093A5019093A601BE
:1010700006CF66E471E08DEA91E00E94DC04809185
:10108000AB019091AC010E94B4048091AB019091AE
:10109000AC019093AA018093A90160E080E00E94D6
:1010A000F80363E571E080E992E00E94DC0460E00F
:1010B0008CE00E94F8036091A9017091AA0180E977
:1010C00092E00E94D20461E080E00E94F80360E6B2
:1010D00071E080E992E00E94DC0464EF71E080E05E
:1010E00090E00E9474020E94A6026B017C0158EEFF
:1010F000C50E53E0D51EE11CF11C0E94A6026C1522
:101100007D058E059F0570F40E94B4002091AB010F
:101110003091AC012817390784F79093AC01809384
:10112000AB01EBCF61E08BE00E94F8036AE671E06F
:1011300080E992E00E94DC0461E08BE00E94F80309
:101140006091AB017091AC0180E992E00E94D20401
:101150008091AB019091AC012091A9013091AA013D
:10116000821B930B49978D37910578F58091A701E4
:101170009091A80101969093A8018093A7016FE632
:1011800071E08DEA91E00E94DC046091A70170910A
:10119000A8018DEA91E00E94D20464E871E08DEA32
:1011A00091E00E94DC048091AB019091AC010E941F
:1011B000B40461E088E00E94F8036091A701709197
:1011C000A80180E992E00E94D2041092AC01109232
:1011D000AB0160E08BE00E94D20160E08CE00E94F5
:1011E000D2010E940D046B0161E871E08DEA91E08B
:1011F0000E94DC04C6010E94B40468EC70E080E048
:1012000090E00E94740261E08BE00E94D20161E0F4
:101210008CE00E94D2010E940D046B0168E871E02D
:101220008DEA91E00E94DC04C6010E94B40468ECDF
:1012300070E080E090E00E94740260E08BE00E9429
:10124000D20161E08CE00E94D2010E940D046B018A
:1012500061E971E08DEA91E00E94DC04C6010E9420
:10126000B40468EC70E080E090E00E94740280E0DA
:1012700090E0892B09F437CF0E942F01882309F4CD
:1012800032CF0E9400002FCFA1E21A2EAA1BBB1B57
:10129000FD010DC0AA1FBB1FEE1FFF1FA217B30742
:1012A000E407F50720F0A21BB30BE40BF50B661F58
:1012B000771F881F991F1A9469F76095709580951C
:1012C00090959B01AC01BD01CF010895EE0FFF1F6A
:0C12D0000590F491E02D0994F894FFCFF4
:1012DC00000000006501C500F200B201230101010C
:1012EC001501000000000704C500B302B2020D0A8C
:1012FC0000564D4450565F317C315F564D4450562C
:10130C000A00564D4450455F003A323A007C005F6B
:10131C00564D44504500456D707479207069706568
:10132C003A2000456D707479207369676E616C00AA
:10133C00426F7420636E7420300020202020004205
:10134C006F74746C652064657465637465642120C6
:10135C0000524544202D2000475245454E202D205B
:0A136C0000424C5545202D200000E2
:107E0000112484B714BE81FFF0D085E080938100F7
:107E100082E08093C00088E18093C10086E0809377
:107E2000C20080E18093C4008EE0C9D0259A86E02C
:107E300020E33CEF91E0309385002093840096BBD3
:107E4000B09BFECF1D9AA8958150A9F7CC24DD24C4
:107E500088248394B5E0AB2EA1E19A2EF3E0BF2EE7
:107E6000A2D0813461F49FD0082FAFD0023811F036
:107E7000013811F484E001C083E08DD089C08234E0
:107E800011F484E103C0853419F485E0A6D080C0E4
:107E9000853579F488D0E82EFF2485D0082F10E0AE
:107EA000102F00270E291F29000F111F8ED06801E7
:107EB0006FC0863521F484E090D080E0DECF843638
:107EC00009F040C070D06FD0082F6DD080E0C81688
:107ED00080E7D80618F4F601B7BEE895C0E0D1E017
:107EE00062D089930C17E1F7F0E0CF16F0E7DF06D8
:107EF00018F0F601B7BEE89568D007B600FCFDCFD4
:107F0000A601A0E0B1E02C9130E011968C91119780
:107F100090E0982F8827822B932B1296FA010C0160
:107F200087BEE89511244E5F5F4FF1E0A038BF0790
:107F300051F7F601A7BEE89507B600FCFDCF97BE46
:107F4000E89526C08437B1F42ED02DD0F82E2BD052
:107F50003CD0F601EF2C8F010F5F1F4F84911BD097
:107F6000EA94F801C1F70894C11CD11CFA94CF0C13
:107F7000D11C0EC0853739F428D08EE10CD085E9AC
:107F80000AD08FE07ACF813511F488E018D01DD067
:107F900080E101D065CF982F8091C00085FFFCCF94
:107FA0009093C60008958091C00087FFFCCF809118
:107FB000C00084FD01C0A8958091C6000895E0E648
:107FC000F0E098E1908380830895EDDF803219F02E
:107FD00088E0F5DFFFCF84E1DECF1F93182FE3DFCA
:107FE0001150E9F7F2DF1F91089580E0E8DFEE27F6
:047FF000FF270994CA
:027FFE00040479
:0400000300007E007B
:00000001FF